:100000000C945D000C9485000C9485000C94850084
:100010000C9485000C9485000C9485000C9485004C
:100020000C9485000C9485000C9485000C9485003C
:100030000C9485000C9485000C9485000C9485002C
:100040000C9496020C9485000C9406030C94E00228
:100050000C9485000C9485000C9485000C9485000C
:100060000C9485000C94850000000008000201003B
:100070000003040700000000000000000000000072
:10008000250028002B0000000000240027002A0083
:10009000040404040404040402020202020203032E
:1000A0000303030301020408102040800102040836
:1000B0001020010204081020380311241FBECFEFC6
:1000C000D8E0DEBFCDBF11E0A0E0B1E0ECE2FCE0A3
:1000D00002C005900D92AE31B107D9F721E0AEE133
:1000E000B1E001C01D92A63EB207E1F710E0CDE5F8
:1000F000D0E004C02197FE010E940E06CC35D10746
:10010000C9F70E94A3030C9414060C94000090E01D
:10011000FC01EC55FF4F249180579F4FFC018491C7
:10012000882399F090E0880F991FFC01EA57FF4F50
:10013000A591B491FC01E458FF4F859194918FB73C
:10014000F894EC91E22BEC938FBF089590E0FC01C2
:10015000E859FF4F2491FC01EC55FF4F3491FC010D
:10016000E057FF4FE491EE23C9F0222339F023300A
:1001700001F1A8F4213019F1223029F1F0E0EE0F5D
:10018000FF1FE458FF4FA591B4918FB7F894EC91FD
:10019000611126C030953E233C938FBF08952730D0
:1001A000A9F02830C9F0243049F7809180008F7D74
:1001B00003C0809180008F7780938000DFCF84B56B
:1001C0008F7784BDDBCF84B58F7DFBCF8091B0006E
:1001D0008F778093B000D2CF8091B0008F7DF9CF20
:1001E0003E2BDACF3FB7F8948091240190912501FE
:1001F000A0912601B091270126B5A89B05C02F3FED
:1002000019F00196A11DB11D3FBFBA2FA92F982F3C
:100210008827BC01CD01620F711D811D911D42E037
:10022000660F771F881F991F4A95D1F70895AF92DF
:10023000BF92CF92DF92EF92FF920F931F93CF93D3
:10024000DF936C017B018B01040F151FEB015E0135
:10025000AE18BF08C017D10759F06991D601ED91CA
:10026000FC910190F081E02DC6010995892B79F769
:10027000C501DF91CF911F910F91FF90EF90DF901B
:10028000CF90BF90AF900895FC01538D448D252FE2
:1002900030E0842F90E0821B930B541710F0CF9620
:1002A000089501970895FC01918D828D981761F052
:1002B000A28DAE0FBF2FB11D5D968C91928D9F5F69
:1002C0009F73928F90E008958FEF9FEF0895FC0148
:1002D000918D828D981731F0828DE80FF11D858DFB
:1002E00090E008958FEF9FEF0895FC01918D228D8E
:1002F000892F90E0805C9F4F821B91098F73992713
:10030000089588E291E00E94750121E0892B09F4AB
:1003100020E0822F089580E090E0892B29F00E9450
:10032000810181110C9400000895FC01A48DA80F97
:10033000B92FB11DA35ABF4F2C91848D90E0019627
:100340008F739927848FA689B7892C93A089B18947
:100350008C91837080648C93938D848D981306C0E8
:100360000288F389E02D80818F7D80830895EF924C
:10037000FF920F931F93CF93DF93EC0181E0888F5F
:100380009B8D8C8D98131AC0E889F989808185FF2F
:1003900015C09FB7F894EE89FF896083E889F989D1
:1003A00080818370806480839FBF81E090E0DF91D3
:1003B000CF911F910F91FF90EF900895F62E0B8D26
:1003C00010E00F5F1F4F0F731127E02E8C8D8E11E1
:1003D0000CC00FB607FCFACFE889F989808185FF48
:1003E000F5CFCE010E949501F1CFEB8DEC0FFD2FE3
:1003F000F11DE35AFF4FF0829FB7F8940B8FEA8903
:10040000FB8980818062CFCFCF93DF93EC01888D11
:100410008823B9F0AA89BB89E889F9898C9185FD7F
:1004200003C0808186FD0DC00FB607FCF7CF8C910D
:1004300085FFF2CF808185FFEDCFCE010E9495012F
:10044000E9CFDF91CF910895FC0101900020E9F7F9
:100450003197AF01481B590BBC0188E291E00C9425
:1004600017018F929F92AF92BF920F931F93CF93DA
:10047000DF93CDB7DEB7A1970FB6F894DEBF0FBEFE
:10048000CDBF19A2423008F44AE08E010F5D1F4F24
:10049000842E912CB12CA12CA50194010E94EC0575
:1004A000E62FB901CA01EA30F4F4E05DD801EE9319
:1004B0008D01232B242B252B79F790E080E01097DA
:1004C00019F0CD010E942402A1960FB6F894DEBF68
:1004D0000FBECDBFDF91CF911F910F91BF90AF9015
:1004E0009F908F900895E95CE1CFCF92DF92EF92D9
:1004F000FF92CF93DF936B017C016DE288E291E084
:100500000E94B701EC0166277727CB016C197D09A2
:100510008E099F094AE00E9431028C0F9D1FDF91D6
:10052000CF91FF90EF90DF90CF9008951F920F92A0
:100530000FB60F9211242F933F938F939F93AF93F6
:10054000BF938091C5019091C601A091C701B09160
:10055000C8013091230123E0230F2D3758F5019670
:10056000A11DB11D209323018093C5019093C60165
:10057000A093C701B093C8018091240190912501F7
:10058000A0912601B09127010196A11DB11D809374
:10059000240190932501A0932601B0932701BF91D8
:1005A000AF919F918F913F912F910F900FBE0F9020
:1005B0001F90189526E8230F0296A11DB11DD2CFDA
:1005C0001F920F920FB60F9211242F933F934F93C8
:1005D0005F936F937F938F939F93AF93BF93EF93AB
:1005E000FF9388E291E00E949501FF91EF91BF9106
:1005F000AF919F918F917F916F915F914F913F91BB
:100600002F910F900FBE0F901F9018951F920F9271
:100610000FB60F9211242F938F939F93EF93FF9315
:10062000E0913801F09139018081E0913E01F09133
:100630003F0182FD1BC09081809141018F5F8F73CC
:1006400020914201821741F0E0914101F0E0E85D24
:10065000FE4F958F80934101FF91EF919F918F9174
:100660002F910F900FBE0F901F9018958081F4CF9F
:10067000CF93DF93E8E2F1E01382128288EE93E0F9
:10068000A0E0B0E084839583A683B78384E091E003
:100690009183808385EC90E09587848784EC90E05B
:1006A0009787868780EC90E0918B808B81EC90E03F
:1006B000938B828B82EC90E0958B848B86EC90E020
:1006C000978B868B118E128E138E148ECDECD1E00B
:1006D00082E090E09983888385E090E09B838A8321
:1006E0001C821D821E821F82188619861A861B860E
:1006F0001C861D861E861B8A1C8A1D8A1E8A1F8ACE
:10070000188E0E94F2006F87788B898B9A8B888174
:100710000E9487008A810E9487002FB7F8948091F9
:10072000C5019091C601A091C701B091C8012FBF2A
:100730008093C9019093CA01A093CB01B093CC01DF
:10074000DF91CF910895789484B5826084BD84B59B
:10075000816084BD85B5826085BD85B5816085BDBC
:1007600080916E00816080936E0010928100809174
:1007700081008260809381008091810081608093FC
:100780008100809180008160809380008091B10021
:1007900084608093B1008091B00081608093B0004C
:1007A00080917A00846080937A0080917A008260E0
:1007B00080937A0080917A00816080937A008091A2
:1007C0007A00806880937A001092C100E09138012D
:1007D000F091390182E08083E0913401F09135019C
:1007E0001082E0913601F091370180E18083109210
:1007F0004001E0913C01F0913D0186E08083E09171
:100800003A01F0913B01808180618083E0913A015F
:10081000F0913B01808188608083E0913A01F09102
:100820003B01808180688083E0913A01F0913B0137
:1008300080818F7D80830E94F2006B017C0148EEF5
:10084000842E43E0942EA12CB12C0E94F2006C194E
:100850007D098E099F09683E734081059105A8F3C3
:1008600021E0821A9108A108B10838EEC30E33E0E6
:10087000D31EE11CF11C81149104A104B10429F7D9
:1008800081E08093220180E094ECA9E0B0E08093C5
:100890001E0190931F01A0932001B093210101E05C
:1008A000C0E0D0E011E03BEA832E3AEA932E36E234
:1008B000A32E33E4B32E2FB7F8948091C501909105
:1008C000C601A091C701B091C8012FBF4091C901D5
:1008D0005091CA016091CB017091CC01841B950BA2
:1008E000A60BB70B88389341A105B10508F443C0A6
:1008F0002FB7F8948091C5019091C601A091C701CE
:10090000B091C8012FBF8093C9019093CA01A093F1
:10091000CB01B093CC011093220180911E019091E4
:100920001F01A0912001B09121018115944CA94093
:10093000B10509F45EC080E094ECA9E0B0E08093DA
:100940001E0190931F01A0932001B093210182E129
:1009500091E00E94240260911E0170911F0180911C
:1009600020019091210197FF48C00E9475028BE100
:1009700091E00E94240280912201882379F1C090A5
:100980001E01D0901F01E0902001F0902101809184
:10099000D1019091D201A091D301B091D401C81698
:1009A000D906EA06FB0669F51093D9011092DA011F
:1009B0008091D901882391F01092220160911E014B
:1009C00070911F01809120019091210197FF9AC0A1
:1009D0000E9475028BE191E00E942402209709F4A5
:1009E0006ACF0E948101882309F465CF0E9400002C
:1009F00062CF80E090E0DC01A2CF4AE00E943102A9
:100A0000B6CF1092D9018092E0019092E101A092BC
:100A1000E201B092E3010E94F2004090DC015090AC
:100A2000DD016090DE017090DF01641975098609AF
:100A300097090E9486052091E0013091E1014091E3
:100A4000E2015091E3010E94C30587FDB1CF80917F
:100A5000D1019091D201A091D301B091D401A7010D
:100A60009601281B390B4A0B5B0BDA01C9018095F3
:100A70009095A095B0958827B7FD83959927AA27CB
:100A8000BB278093E5018091E40180278093E401F6
:100A90000E94F2006093DC017093DD018093DE011F
:100AA0009093DF016091E4018091CD010E94A60046
:100AB0006091E5018091CF010E94A6001093DA01B8
:100AC0008091E401811174CF8091D1019091D20184
:100AD000A091D301B091D401C81AD90AEA0AFB0A3D
:100AE000F7FE0CC00197A109B1098093D101909341
:100AF000D201A093D301B093D4015ACF0196A11D86
:100B0000B11DF3CF4AE00E94310264CFE89409C0DE
:100B100097FB3EF490958095709561957F4F8F4F30
:100B20009F4F9923A9F0F92F96E9BB279395F69546
:100B3000879577956795B795F111F8CFFAF4BB0FC4
:100B400011F460FF1BC06F5F7F4F8F4F9F4F16C028
:100B5000882311F096E911C0772321F09EE8872FB2
:100B6000762F05C0662371F096E8862F70E060E06E
:100B70002AF09A95660F771F881FDAF7880F9695E7
:100B8000879597F908950E94C80508F48FEF089596
:100B9000990F0008550FAA0BE0E8FEEF161617068E
:100BA000E807F907C0F012161306E407F50798F0F6
:100BB000621B730B840B950B39F40A2661F0232B0F
:100BC000242B252B21F408950A2609F4A140A6958B
:100BD0008FEF811D811D0895A1E21A2EAA1BBB1B58
:100BE000FD010DC0AA1FBB1FEE1FFF1FA217B307F9
:100BF000E407F50720F0A21BB30BE40BF50B661F0F
:100C0000771F881F991F1A9469F7609570958095D2
:100C100090959B01AC01BD01CF010895EE0FFF1F20
:0C0C20000590F491E02D0994F894FFCFAA
:100C2C0000000000B70117014401040275015301D3
:0E0C3C0067015461726765743A20000D0A006A
:00000001FF
